:04270C0041017E0009
:101DBB00122FD71230037F0112269D122FC0D2AFE4
:101DCB001214BA12307890FFFF1205D97401F0FB90
:101DDB007A0079FC90FFFD1205D91204D27B007AB0
:101DEB0000790090FFFD1205D91204D27BFF7A2EE9
:101DFB00793E1217AA90FFFF1205D97402F07B01EE
:101E0B007A01793D90FFFD1205D91204D27B007A3D
:101E1B0000790090FFFD1205D91204D27BFF7A2CBA
:101E2B0079B11217AA90FFFF1205D97403F07B0149
:101E3B007A01797F90FFFD1205D91204D27B007ACB
:101E4B0000790090FFFD1205D91204D27BFF7A2D89
:081E5B0079EA1217AA0229120C
:102E3E0090FFFD1205D91204D285128385138212DA
:102E4E0004B28512838513821204D2D2A9B2CD7E2A
:082E5E00007F641225B980F524
:102CB10090FFFD1205D91204D28512838513821269
:102CC10004B28512838513821204D290017EE0B48E
:0E2CD10001031222E97E007F641225B980ED16
:102DEA0090FFFD1205D91204D2851283851382122F
:102DFA0004B28512838513821204D2122F5D121A2D
:0A2E0A00B07E007F0A1225B980F4A3
:0300000002204497
:0C20440075120475130075815002208B8A
:10284C002020202025642025642025642025642058
:10285C00256400202020202563202563202563206B
:10286C00256320256300B5C3B7D63A20256400D272
:10287C00D1CDCBB3F621002020B4F0B6D4C1CB001F
:10288C00BCCCD0F8B4F0CCE200B4F0B0B8CCABD047
:10289C00A100B4F0B0B8CCABB4F300B2C2D7D6D36D
:0428AC00CECFB700D4
:1027100042026800004A028D000000000000000034
:10272000000041027F004102800041029900410205
:022730006A003D
:1019D0009001C2EFF0900280E0701C9001C2E02400
:1019E000CE600C14600E2402700D122FA980081214
:1019F0002F438003122974900280E0640160030287
:101A00001A9D90026AE070449001C2E01205B31A78
:101A10002E311A33321A38331A3A341A3C351A3EF8
:101A2000361A43371A45381A473900001A9D121CD6
:101A300049806A121D0380658042804580481221DA
:101A40005B805A804B804E1221E480519001C2E0AD
:101A50001205B31A72311A77321A7C331A81341A8A
:101A600086351A8B361A90371A95381A9A3900002B
:101A70001A9D121E638026121F098021120E3480C7
:101A80001C122F778017122F9080121224D1800DF4
:101A9000122EB58008123029800312236B90028029
:101AA000E0B4020B9001C2E024C870031230292276
:102FA900900299E07003F08006900299E014F09085
:072FB9000299E0FF022EDB8C
:102F4300900299E0B402057402F08006900299E0C1
:0A2F530004F0900299E0FF022EDB6B
:10297400900299E0700B90028004F0121FAD1220B7
:09298400D0900299E06401702D6D
:10298D0078C37C017D017BFF7A28797BFE7F08125D
:10299D0001361223E37B017A0179C37D017F021297
:0D29AD002E66E4900299F09002807402F012
:1029BA00900299E0B4021190017E7401F0E4900251
:0929CA0099F09002807402F022E1
:101C490090027FE0FF25E0248DF582E43402F583DC
:101C5900E475F00112020CEF25E0248DF582E434DD
:101C690002F583E0FEA3E0D39409EE6480948040FA
:101C79001390027FE025E0248DF582E43402F58398
:101C8900E4F0A3F07BFF7A28794C9002431204D246
:101C990090028DE0FFA3E0900246CFF0A3EFF09011
:101CA900028FE0FFA3E0900248CFF0A3EFF090028B
:101CB90091E0FFA3E090024ACFF0A3EFF0900293E6
:101CC900E0FFA3E090024CCFF0A3EFF0900295E083
:101CD900FFA3E090024ECFF0A3EFF07B017A0279E7
:101CE9006B120B347B107D01E4FF12303A7B017AD1
:0A1CF90002796B7D01E4FF022E6604
:101D030090027FE0FF25E0248DF582E43402F58321
:101D130074FFF5F012020CEF25E0248DF582E43414
:101D230002F583E0FEC3EE64809480501590027F39
:101D3300E025E0248DF582E43402F583E4F0A37416
:101D430009F07BFF7A28794C9002431204D2900267
:101D53008DE0FFA3E0900246CFF0A3EFF090028F57
:101D6300E0FFA3E0900248CFF0A3EFF0900291E0F0
:101D7300FFA3E090024ACFF0A3EFF0900293E0FFBD
:101D8300A3E090024CCFF0A3EFF0900295E0FFA305
:101D9300E090024ECFF0A3EFF07B017A02796B1251
:101DA3000B347B107D01E4FF12303A7B017A027918
:081DB3006B7D01E4FF022E66C6
:102F770090027FE0B40404E4F0800690027FE0044E
:092F8700F090027FE0FF022C7FB4
:102F900090027FE070057404F0800690027FE014D8
:092FA000F090027FE0FF022C7F9B
:10215B0090027FE025E0248DF582E43402F583E4E0
:10216B00F0A3F07BFF7A28794C9002431204D290B3
:10217B00028DE0FFA3E0900246CFF0A3EFF09002B8
:10218B008FE0FFA3E0900248CFF0A3EFF090029115
:10219B00E0FFA3E090024ACFF0A3EFF0900293E0B0
:1021AB00FFA3E090024CCFF0A3EFF0900295E0FF7D
:1021BB00A3E090024ECFF0A3EFF07B017A02796B94
:1021CB00120B347B107D01E4FF12303A7B017A0253
:0921DB00796B7D01E4FF022E6620
:102EB500E4F5AF90026AE014600E04701390026AA4
:102EC5007401F012236B8008E490026AF01221E489
:062ED500121FAD02305B8C
:10302900E4900280F090017EF0F5AF120003022FC8
:013039005D39
:1021E400E490028DF0A3F0A3F0A3F0A3F0A3F0A376
:1021F400F0A3F0A3F0A3F07BFF7A28794C9002437C
:102204001204D290028DE0FFA3E0900246CFF0A327
:10221400EFF090028FE0FFA3E0900248CFF0A3EF2D
:10222400F0900291E0FFA3E090024ACFF0A3EFF018
:10223400900293E0FFA3E090024CCFF0A3EFF0E410
:10224400A3F0A3F07B017A02796B120B347B107D2F
:1022540001E4FF12303A7B017A02796B7D01E4FFDD
:03226400022E66E1
:101E630090027FE0FF25E0248DF582E43402F583C0
:101E7300E475F00112020CEF25E0248DF582E434C1
:101E830002F583E0FEA3E0D39419EE6480948040CE
:101E93001390027FE025E0248DF582E43402F5837C
:101EA300E4F0A3F07BFF7A28795F9002431204D217
:101EB30090028DA3E02441900246F090028FA3E0AC
:101EC3002441900247F0900291A3E02441900248FC
:101ED300F0900293A3E02441900249F0900295A36D
:101EE300E0244190024AF07B017A02796B120B34B1
:101EF3007B107D01E4FF12303A7B017A02796B7D1E
:061F030001E4FF022E665E
:101F090090027FE0FF25E0248DF582E43402F58319
:101F190074FFF5F012020CEF25E0248DF582E4340C
:101F290002F583E0FEC3EE64809480501590027F31
:101F3900E025E0248DF582E43402F583E4F0A3740E
:101F490019F07BFF7A28795F9002431204D290023C
:101F59008DA3E02441900246F090028FA3E0244132
:101F6900900247F0900291A3E02441900248F0903A
:101F79000293A3E02441900249F0900295A3E02442
:101F89004190024AF07B017A02796B120B347B1083
:101F99007D01E4FF12303A7B017A02796B7D01E41D
:041FA900FF022E669F
:1024D10090027FE025E0248DF582E43402F583E467
:1024E100F0A3F07B107D01FF12303A7BFF7A28794F
:1024F1005F9002431204D290028DA3E02441900226
:1025010046F090028FA3E02441900247F09002919F
:10251100A3E02441900248F0900293A3E02441906B
:102521000249F0900295A3E0244190024AF07B0118
:102531007A02796B120B347B017A02796B7D01E4AB
:04254100FF022E6601
:10236B00E490028DF0A3F0A3F0A3F0A3F0A3F0A3ED
:10237B00F0A3F0A3F0A3F07B107D01FF12303A7BAA
:10238B00FF7A28795F9002431204D290028DA3E06A
:10239B002441900246F090028FA3E0244190024723
:1023AB00F0900291A3E02441900248F0900293A395
:1023BB00E02441900249F0900295A3E02441900261
:1023CB004AF07B017A02796B120B347B017A02792A
:0823DB006B7D01E4FF022E6698
:101FAD0090026AE0704890028BF0A3F0122B2B7C0C
:101FBD00007D0A1201D690028CE025E0FF90028B85
:101FCD00E033FE74812FF58274023EF583ECF0A3AD
:101FDD00EDF090028BE475F00112020CC390028CAF
:101FED00E0940590028BE06480948040BF22E490E1
:101FFD00028BF0A3F0122B2B7C007D191201D690D1
:10200D00028CE025E0FF90028BE033FE74812FF50A
:10201D008274023EF583ECF0A3EDF090028BE47533
:10202D00F00112020CC390028CE0940590028BE03B
:07203D006480948040BF2283
:10277A00E490028BF0A3F090028BE0FEA3E0FFC38B
:10278A009405EE648094805050EF25E0FFEE33FE0E
:10279A00748D2FF58274023EF583E0FCA3E0FD748C
:1027AA00812FF58274023EF583E0FAA3E0FBC39D14
:1027BA00EC6480F8EA64809850037F0222D3EB9D90
:1027CA00EC6480F8EA64809840037F032290028BCD
:0C27DA00E475F00112020C809E7F0122C9
:100E340078C37C017D017BFF7A2879837E007F095A
:100E440012013678CC7C017D017BFF7A28798C7E77
:100E5400007F0912013678D57C017D017BFF7A2859
:100E640079957E007F0912013678DE7C017D017B55
:100E7400FF7A28799E7E007F0912013678E77C018B
:100E84007D017BFF7A2879A77E007F091201361243
:100E94002C3F12277AEF64016003020F9CF5AF9098
:100EA400026875F00A12020C7BFF7A2879729002AC
:100EB400431204D2900268E0FFA3E0900246CFF010
:100EC400A3EFF07B017A02796B120B347B107D0364
:100ED400E4FF12303A7B017A02796B7D037F0212C0
:100EE4002E667B017A0179C3E4FD7F02122E66909F
:100EF400028B7403F0A374E8F09002977402F0A3D9
:100F04007458F090029774FFF5F012020C90029757
:100F1400E07002A3E070EC90028B74FFF5F0120213
:100F24000C90028BE07002A3E070CE7B017A017911
:100F3400CCE4FD7F02122E6690028B7403F0A3743E
:100F4400E8F0900297E4F0A374C8F090029774FF5D
:100F5400F5F012020C900297E07002A3E070EC909E
:100F6400028B74FFF5F012020C90028BE07002A366
:100F7400E070CF7B017A0179E7E4FD7F02122E66EF
:100F840090026AE0B4010512236B80031221E4127B
:100F94001FAD12305B0210C47B107D01E4FF1230E0
:100FA4003A12277ABF020D7B017A0179DE7D017F37
:100FB40002122E6612277ABF030D7B017A0179D5BE
:100FC4007D017F02122E6690028B7403F0A374E8F5
:100FD400F0900297E4F0A37464F090029774FFF524
:100FE400F012020C900297E07002A3E070EC900201
:100FF4008B74FFF5F012020C90028BE07002A3E0F8
:1010040070CF7B107D01E4FF12303A90026AE07BDE
:10101400FF70567A28794C9002431204D290028DC4
:10102400E0FFA3E0900246CFF0A3EFF090028FE040
:10103400FFA3E0900248CFF0A3EFF0900291E0FF0D
:10104400A3E090024ACFF0A3EFF0900293E0FFA355
:10105400E090024CCFF0A3EFF0900295E0FFA3E004
:1010640090024ECFF0A3EF80407A28795F9002433C
:101074001204D290028DA3E02441900246F0900223
:101084008FA3E02441900247F0900291A3E0244111
:10109400900248F0900293A3E02441900249F0901A
:1010A4000295A3E0244190024AF07B017A02796B15
:1010B400120B347B017A02796B7D01E4FF122E66F8
:0810C40090027FE0FF022C7F87
:0F305B0043AF049002CDE4F0A37464F002226747
:10304B00313233263435362537383928301B0D27A6
:102732005002BB010101010101010101010101017D
:1027420001010141029A0050029BFFFFFFFFFFFFC0
:10275200FFFFFFFFFFFFFFFFFFFF5002AB01010181
:0D276200010101010101010101010101015D
:10166B0090029AE0FF25E025E0249BF582E434020A
:10167B00F583E025E0FEA2A4E4334EFEEF25E02542
:10168B00E0249BF582E43402F583EEF090029AE0BD
:10169B00FF25E025E0249CF582E43402F583E02568
:1016AB00E0FEA2A5E4334EFEEF25E025E0249CF5F9
:1016BB0082E43402F583EEF090029AE0FF25E025F8
:1016CB00E0249DF582E43402F583E025E0FEA2A63A
:1016DB00E4334EFEEF25E025E0249DF582E4340251
:1016EB00F583EEF090029AE0FF25E025E0249EF5CD
:1016FB0082E43402F583E025E0FEA2A7E4334EFE3C
:10170B00EF25E025E0249EF582E43402F583EEF02C
:10171B00E4FF90029AE0FE25E025E0249BF582E4AD
:10172B003402F583E5822FF582E43583F583E054AB
:10173B000FFDBD0F1DEE25E025E024BBF582E43443
:10174B0002F583E5822FF582E43583F5837401F08E
:10175B00801DED701AEE25E025E024BBF582E43404
:10176B0002F583E5822FF582E43583F583E4F00FF0
:10177B00EFB4049E90029AE004F0E05403F014607E
:10178B000F14601114601324037013D2A0C2A32290
:0E179B00D2A3C2A222D2A2C2A122D2A1C2A077
:0117A900221D
:101AB000E49001C0F0E49001C1F09001C1E0C39452
:101AC000044003021B72E0FF9001C0E0FE25E02508
:101AD000E024ABF582E43402F583E5822FF582E45D
:101AE0003583F583E0FDEE25E025E024BBF582E4B7
:101AF0003402F583E5822FF582E43583F583E0FF38
:101B00006D6066EF70269001C1E0FF9001C0E02596
:101B1000E025E0244BF582E43430F583E5822FF5AF
:101B200082E43583F583E493FF1219D09001C1E07C
:101B3000FF9001C0E0FE25E025E024BBF582E434FF
:101B400002F583E5822FF582E43583F583E0FDEE2F
:101B500025E025E024ABF582E43402F583E5822F0D
:101B6000F582E43583F583EDF09001C1E004F002E5
:101B70001ABA9001C0E004F0E0C394045003021AC2
:011B8000B5AF
:011B81002241
:103017007580FFC2B5D2B6D2B7AF80C2B7EF20E78F
:01302700F6B2
:013028002285
:102D0D007F34122D289002D8E02460FF122D2890D8
:0B2D1D0002D7E02488FF122D287F3031
:102D2800AE07123017C2B5C2B6AF068F80D2B7C28F
:022D3800B722C0
:103003007F38122D287F0C122D287F06122D287F42
:0430130001022D2861
:1029D300E075F002A4FBAAF0A3E075F010A42BFFAE
:1029E300E5F03AFEED2FF582EC3EF583E493FF121A
:1029F3002A1D9002D7E075F002A4FBAAF0A3E075AC
:102A0300F010A42BFFE5F03ACF2401CF3400FEED04
:0A2A13002FF582EC3EF583E493FFFB
:102A1D00AE07123017D2B5C2B6AF068F80D2B7C28D
:022A2D00B722CE
:102E1400ED7006EF2480FC801CEDB40106EF2490D5
:102E2400FC8012EDB40206EF2488FC8008EDB403A4
:0A2E340004EF2498FCAF04022D28DF
:102E66009002401204D2122E149002401204B212A2
:102E7600015C6013900240E475F0011204BB12017C
:082E86005CFF122A1D80E2220C
:10303A00122E14AF031BEF60077F20122A1D80F3A4
:01304A002263
:050003007F01022D2821
:102FD700E4F594F593F592F591F596F595F5B2F537
:062FE700B1F5B4F5B322C0
:10254500AD07AC06E49002D8F0E49002D7F07F34F2
:10255500122D289002D8E02480FF122D289002D752
:10256500E02480122D221229D39002D7E004F0E056
:10257500C3940840D99002D8E004F0E0C394204009
:10258500C89002D87420F0E49002D7F0122D0D12F5
:1025950029D39002D7E004F0E0C3940840EE9002FE
:1025A500D8E004F0E0C3944040DD7F36122D287F4B
:0425B50030022D289B
:1023E300E49002D8F0E49002D7F07F34122D2890C5
:1023F30002D8E02480FF122D289002D7E024801217
:102403002D22E4FF122A1DE4FF122A1DE004F0E04E
:10241300C3940840D59002D8E004F0E0C394204070
:10242300C49002D87420F0E49002D7F0122D0DE48A
:10243300FF122A1DE4FF122A1DE004F0E0C39408F2
:1024430040EA9002D8E004F0E0C3944040D97F36DC
:08245300122D287F30022D2814
:102EDB009001C3EFF0122BFE122D66122DBE900146
:102EEB00C3E014600A14600A24027009022BBD02AD
:062EFB002D3A122D922277
:102BBD009002D87414F09002D77405F07F34122D62
:102BCD00289002D8E02480FF122D289002D7E0240F
:102BDD0080122D227FFF122A1D7FFF122A1DE00475
:102BED00F0E0C3940740D57F36122D287F30022D9B
:012BFD0028AF
:102BFE009002D87414F09002D77405F07F34122D21
:102C0E00289002D8E02480FF122D289002D7E024CD
:102C1E0080122D22E4FF122A1DE4FF122A1DE00469
:102C2E00F0E0C3940740D57F36122D287F30022D59
:012C3E00286D
:102D3A009002D87425F09002D77405F0122D0D7FF9
:102D4A00FF122A1D7FFF122A1DE004F0E0C3940738
:0C2D5A0040EA7F36122D287F30022D2821
:102D66009002D87425F09002D77405F0122D0DE468
:102D7600FF122A1DE4FF122A1DE004F0E0C39407A7
:0C2D860040EA7F36122D287F30022D28F5
:102D92009002D87435F09002D77405F0122D0D7F91
:102DA200FF122A1D7FFF122A1DE004F0E0C39407E0
:0C2DB20040EA7F36122D287F30022D28C9
:102DBE009002D87435F09002D77405F0122D0DE400
:102DCE00FF122A1DE4FF122A1DE004F0E0C394074F
:0C2DDE0040EA7F36122D287F30022D289D
:102C7F009001F0EFF0122C3F9001F0E0146011146E
:102C8F006012146013146014240470157F02800EF8
:102C9F007F03800A7F0480067F0580027F06122C47
:022CAF00DF2222
:102CDF00AD079002D8741DF07F34122D28E02480A8
:102CEF00FF122D28ED2480122D227FFF122A1D7F27
:0E2CFF0080122A1D7F36122D287F30022D28CC
:102C3F009002D8741DF0E49002D7F07F34122D2843
:102C4F009002D8E02480FF122D289002D7E0248034
:102C5F00122D22E4FF122A1DE4FF122A1DE004F0B8
:102C6F00E0C3940840D57F36122D287F30022D28DF
:102FED00B5B9BCC6CAB13A202530336400D3CECFB3
:062FFD00B7BDE1CAF800B7
:0A276F004202CB00004202CD0064DC
:093078005389F0438901D28C2236
:02269D00AB0789
:10269F009001C012046F000E1000AF03E4FCFDFEAA
:1026AF009001C01204321202EAE47BE87A03F9F8CF
:1026BF001203759001C012044A9001C0120432C374
:1026CF00E49BFFE49AFE740199FDE498FC9001C02D
:1026DF0012044A9001C012042678081204078F8D45
:1026EF009001C01204268F8B9002CFE58DF0A3E5E9
:0C26FF008BF05389F0438901D2ABD28EDE
:01270B0022AB
:03001B00022B783D
:102B7800C0E0C0F0C083C082C0D075D000C000C023
:102B880001C002C003C004C005C006C0079002CF40
:102B9800E0F58DA3E0F58B12166BD007D006D005B3
:102BA800D004D003D002D001D000D0D0D082D083BE
:052BB800D0F0D0E03276
:102FC000538EFB75D6FC75D7679002D1E5D6F0A37A
:072FD000E5D7F0438E10224B
:030063000228B0C0
:1028B000C0E0C0F0C083C082C0D075D000C000C0EE
:1028C00001C002C003C004C005C006C0079002D109
:1028D000E0F5D6A3E0F5D79002CBE475F001120243
:1028E0000C9002CBE0B4030FA3E0B4E80A12226715
:1028F0009002CBE4F0A3F0D007D006D005D004D0EE
:1029000003D002D001D000D0D0D082D083D0F0D07C
:02291000E032B3
:102267007BFF7A2F79ED9002431204D29002CD744E
:10227700FFF5F0120222AFF0900246F0A3EFF07BD9
:10228700017A02792C120B347B147D02E4FF1230A1
:102297003A7B017A02792C7D027F01122E66900229
:1022A700CDE0F47003A3E0F47037122C3F7BFF7A84
:1022B7002F79FA9002431204D27B017A02792C1209
:1022C7000B347B147D01E4FF12303A7B017A0279EB
:1022D7002C7D017F02122E66E4F5AF900280740216
:0122E700F006
:0122E80022D3
:10067D00000000000000000000000000000000006D
:10068D00000000000000000000000000000000005D
:10069D00000000000000000000000000000000004D
:1006AD00000000000000000000000000000000003D
:1006BD00000000000000000000000000000000002D
:1006CD00000000000000000000000000000000001D
:1006DD000001FE000000000000000000000000000E
:1006ED000001FFFFFFFFFFFFFF8000001000000073
:1006FD000001FFFFFFFFFFFFFF8007FE10800000DE
:10070D000001CFFFFFFFFFFFFF80011010900000E1
:10071D000001C00000000000038001107D100000EA
:10072D000001C0000000000003800110113800001E
:10073D000001C000000000000380011025C800006A
:10074D000001C0000000000003800FFE2400000027
:10075D000001C000000000000380011025F800001A
:10076D000001C00000000000038001101908000006
:10077D000001C00000000000038001100908000006
:10078D000001C000000000000380021015F80000F9
:10079D000001C01FC0000FE00380041023080000FB
:1007AD000001C01FC0000FE003800000000000002A
:1007BD000001C01FC0000FE003800000000000001A
:1007CD000001C01FC0000FE003800000000000000A
:1007DD000001C01FC0000FE00380000000000000FA
:1007ED000001C01FC0000FE00380000000000000EA
:1007FD000001C01FC0000FE00380000000000000DA
:10080D000001C00000000000038004FC0100000096
:10081D000001C000000000000380048401000000FE
:10082D000001C00000000000038000FC111000005A
:10083D000001C000000000000380008411100000C2
:10084D000001C0000000000003800CFC1FF0000040
:10085D000001C00000000000038004A001000000A2
:10086D000001C0000000000003800494010000009E
:10087D000001E00000000000038004A8111000003A
:10088D000001E00000000000038004C4111000000E
:10089D000001E0000000000003800F0011100000B7
:1008AD000000E00000FC0000038009FE1FF00000C6
:1008BD000000E00000FE00000380000000000000CA
:1008CD000000E00003FE00000380000000000000B7
:1008DD000000E00003FE00000380000000000000A7
:1008ED000000E00003FE0000038000000000000097
:1008FD000000E00001FE0000038000000000000089
:10090D000000E00001FE0000038000000000000078
:10091D000000E00000000000038000000000000067
:10092D000000F00000000000038001C223800000E1
:10093D000000F000000000000380022224400000AF
:10094D000000F00000000000038005A2240000005C
:10095D00000070000000000003800562220000000E
:10096D0000007FFFFFF80000038006222100000039
:10097D0000007FFFFFFFFFFF838006E22080000065
:10098D0000007FFFFFFFFFFFFF80054220400000BA
:10099D0000000000003FFFFFFF80042264400000C4
:1009AD000000000000000003FF8003C1C3800000B1
:1009BD00000000000000000000000000000000002A
:1009CD00000000000000000000000000000000001A
:1009DD00000000000000000000000000000000000A
:1009ED0000000000000000000000000000000000FA
:1009FD0000000000000000000000000000000000EA
:100A0D0000000000000000000000000000000000D9
:100A1D0000000000000000000000000000000000C9
:100A2D0000000000000000000000000000000000B9
:100A3D0000000000000000000000000000000000A9
:100A4D000000000000000000000000000000000099
:100A5D000000000000000000000000000000000089
:100A6D000000000000000000000000000000000079
:100A7D00B2C2D7D6D3CECFB7002020202030203021
:100A8D0020302030203000B5B9BCC6CAB13A203173
:100A9D00303000B5C3B7D63A20303000BFF6C0F6BF
:100AAD00003331363230353230353137333100D3D2
:100ABD00E0B6AB0033313632303532303531343388
:020ACD003200F5
:102F5D007E067F7D122545122BBDE4900000F0A367
:0A2F6D00F09002CDF0A37464F0228E
:1020D00078CB7C017D017BFF7A0A797D7E007F09C8
:1020E00012013678D47C017D017BFF7A0A79867EE5
:1020F000007F0E12013678E27C017D017BFF7A0AB7
:1021000079947E007F0C12013678EE7C017D017B94
:10211000FF7A0A79A07E007F091201361223E37B41
:10212000017A0179CBE4FD7F02122E667B017A01F0
:1021300079D47D01E4FF122E667B017A0179E27D7C
:10214000027F01122E667B017A0179EE7D037F0208
:0B215000122E6643AF047F02022CDF5A
:1022E90078C07C017D017BFF7A0A79A97E007F0590
:1022F90012013678C57C017D017BFF7A0A79AE7EB1
:10230900007F0E12013678D37C017D017BFF7A0AAA
:1023190079BC7E007F0512013678D87C017D017B6E
:10232900FF7A0A79C17E007F0E1201361223E37B00
:10233900017A0179C0E4FDFF122E667B017A0179E9
:10234900C57D01E4FF122E667B017A0179D37D02F6
:10235900E4FF122E667B017A0179D87D03E4FF023E
:022369002E66DE
:1018C800010204081020408000000100020001000D
:1018D80003000100020001000400010002000100F1
:1018E80003000100020001000500010002000100E0
:1018F80003000100020001000400010002000100D1
:1019080003000100020001000600010002000100BE
:1019180003000100020001000400010002000100B0
:10192800030001000200010005000100020001009F
:101938000300010002000100040001000200010090
:10194800030001000200010007000100020001007D
:101958000300010002000100040001000200010070
:10196800030001000200010005000100020001005F
:101978000300010002000100040001000200010050
:10198800030001000200010006000100020001003E
:101998000300010002000100040001000200010030
:1019A800030001000200010005000100020001001F
:1019B8000300010002000100040001000200010010
:0819C800030001000200010010
:0614BA0090FFF51205D9B8
:1014C000120008E4782FF67825F6784EF67824F6A0
:1014D000784A1204560000000078461204560000B4
:1014E0000000E47823F67B017A0079FB851283857E
:1014F0001382A3A31204D2851283851382E4F0A37E
:10150000F0851283851382E0FEA3E0C39401EE947C
:10151000005021851283851382A3A3E475F0011284
:1015200004BBE41201A285128385138275F00112B7
:10153000020C80CDE4784FF608F6FBFAF978301209
:1015400004A9782C1204A978261204A9851283858F
:101550001382E4F0A3F0851283851382E0FEA3E0FA
:10156000FFC39406EE940050207B007A007900EFD0
:1015700075F003A42433F81204A98512838513821D
:10158000E475F00112020C80CD7B017A00790090A5
:1015900000051205FD1204D27B017A00791190003A
:1015A000081205FD1204D2851283851382E4F0A38C
:1015B000F0851283851382E0FEA3E0C3940AEE94C3
:1015C0000050499000081205FD1204B2C003C00289
:1015D000C0019000051205FD1204B290000312052F
:1015E0005A9000051205FDA3E475F01112020C904B
:1015F00000081205FDA3E475F01112020C85128398
:10160000851382E475F00112020C80A57B007A003C
:101610007900C003C002C0019000051205FD12044C
:10162000B290000312055A7B017A007900782912E2
:1016300004A990FFFF1205D97405F07B017A0079A7
:10164000BB90FFFD1205D91204D27B007A0079000D
:1016500090FFFD1205D91204D27BFF7A0079261281
:0516600017AA120009A9
:0616650090000B0205D904
:0E306A00C2AF782FE6C394FF500106D2AF220A
:10262D00C2AF782FE6D39400400116782FE6705D87
:10263D007825E670587823E69018D0937845F6E61D
:10264D00FF24FBF582E43400F583E09018D093FE6F
:10265D00EF33333354F8FFEE2FFF7850F618E66F53
:10266D00602B08E675F003A42433F81204A078302B
:10267D001204A9784612041AEF2401FFE43EFEE489
:10268D003DFDE43CFC784612043E12000ED2AF2212
:0629120090FFFE1205D942
:102918007824E6705118E69018D0938512838513B1
:1029280082F0E0FF24FBF582E43400F583E09018A0
:10293800D093851283851382A3F0EF33333354F891
:10294800FF851283851382A3E02F7850F618F67559
:10295800F003A42433F81204A078301204A9782CC8
:062968001204A9122A87E7
:06296E009000020205D9F1
:061B820090FFFD1205D9E1
:101B880012001878261204A0851283851382120485
:101B9800D28512838513821204B290000C1201754B
:101BA80064057003021C43C2AF9000091202384555
:101BB800F0606B8512838513821204B29000097459
:101BC800FFF5F012027045F0705490000B12017589
:101BD80020E338900010120175782346F690000E25
:101BE80012017524FBF582E43400F583C083C082BA
:101BF800E0FF8512838513821204B290000F120150
:101C080075FEEF4ED082D083F08013851283851342
:101C1800821204B2900009E475F0011202BD851227
:101C2800838513821204B290000312052A85128359
:0B1C38008513821204D2D2AF021B9968
:061C43009000030205D928
:06245B0090FFFF1205D9FD
:10246100C2AF782FE670617825E6705C7823E6903C
:1024710018D093851283851382F0E0FF24FBF58247
:10248100E43400F583E09018D093FEEF33333354F6
:10249100F8FFEE2FFF7850F618E66F602B08E6750F
:1024A100F003A42433F81204A078301204A978466A
:1024B10012041AEF2401FFE43EFEE43DFDE43CFC7E
:0A24C100784612043E1227E6D2AF5F
:0624CB009000010205D99A
:1000260090FFFD1205D91204D28512838513821220
:1000360004B28512838513821204D2C2AF784A12A3
:10004600041AEF2401FFE43EFEE43DFDE43CFC78A7
:0B0056004A12043ED2AF12001980E0F5
:1010CC0090FFFD1205D91204D290FFFF1205D9EF43
:0710DC00F090FFFD1205D9A1
:1010E300C2AF78291204A08512838513821204D219
:1010F3008512838513821204B2E94A4B70030212EC
:10110300D48512838513821204B290000312052A38
:1011130078291204A9D2AF9000041205FD1204B27B
:10112300C003C002C0018512838513821204B21268
:1011330004DB9000031205FDE0FF85128385138213
:101143001204B290000CEF1201B490000BE41201F0
:10115300B4900009E4F5F01202BD9000101205FDF1
:101163001204B29000101205FD1204D290000C126A
:1011730005FD12042690000C1205FD12044A90008E
:10118300071205FD1204B29000071205FD1204D2E6
:101193009000131205FDE0FEA3E0FF90001312057B
:1011A300FDEEF0A3EFF090000A1205FDE0FEA3E0D0
:1011B300FF90000A1205FDEEF0A3EFF0900003127A
:1011C30005FDE0FF131313541FFE8512838513825D
:1011D3001204B290000EEE1201B490000E120175CB
:1011E3009018C8939000101201B4EF540790000DAB
:1011F3001201B490000D1201759018C89390000F5E
:101203001201B4122F228512838513821204B212A3
:101213002F01C2AF8512838513821204B29000039B
:101223001205FDE075F003A42433F81204A978260F
:101233001204A0C003C002C0018512838513821269
:1012430004B290000312055A7B007A007900C003B0
:10125300C002C0018512838513821204B290000676
:1012630012055A78261204A0E94A4B601A851283A4
:101273008513821204B2C003C002C001782612048F
:10128300A090000612055A8512838513821204B2B8
:1012930078261204A9900010120175782346F6905F
:1012A300000E12017524FBF582E43400F583C0833C
:1012B300C082E0FF8512838513821204B290000F6F
:1012C300120175FEEF4ED082D083F0D2AF7F008043
:0512D30004D2AF7F46CC
:0612D8009000150205D98B
:0F12DE0090FFFD1205D91204D290FFFD1205D921
:1012ED009000061205FD1204B29000061205FD12C3
:1012FD0004D290000C1205FDE0FEA3E0FF90000C5F
:10130D001205FDEEF0A3EFF09000091205FD120499
:10131D00B28512838513821204D2851283851382BE
:10132D00E475F0011204BB740F1201A290000312B8
:10133D0005FD1204B2AF01851283851382E475F0A9
:10134D00011204BBEF1201A29000031205FD12045D
:10135D00B2EAFF851283851382E475F0011204BB96
:10136D00EF1201A2851283851382E475F001120438
:10137D00BB740A1201A2851283851382E475F001F4
:10138D001204BB740B1201A2851283851382E475BE
:10139D00F0011204BBE41201A2851283851382753C
:1013AD00F0011204BBE41201A2851283851382752C
:1013BD00F0011204BBE41201A2851283851382751C
:1013CD00F0011204BBE41201A29000061205FD12F9
:1013DD0004B2AF01851283851382E475F001120406
:1013ED00BBEF1201A29000061205FD1204B2EAFF36
:1013FD00851283851382E475F0011204BBEF12018F
:10140D00A2851283851382E475F0011204BB740169
:10141D001201A2851283851382E475F0011204BBBB
:10142D0074041201A2851283851382E475F00112F2
:10143D0004BB74051201A2851283851382E475F035
:10144D00011204BB74061201A2851283851382E476
:10145D0075F0011204BB74071201A2900009120568
:10146D00FD1204B2E92440F9E43AFF851283851395
:10147D0082E475F0011204BBEF1201A29000091273
:10148D0005FD1204B2E92440F9E43AAF0185128357
:10149D00851382E475F0011204BBEF1201A29000D6
:0714AD00091205FD1204B253
:0614B40090000E0205D9B4
:0100080022D5
:0100090022D4
:102F010090FFFD1205D91204D28512838513821216
:102F110004B28512838513821204D2900003020544
:012F2100D9D6
:01000A0022D3
:102F220090FFFD1205D91204D285128385138212F5
:102F320004B28512838513821204D2900003020523
:012F4200D9B5
:0100180022C5
:0100190022C4
:0F17AA0090FFFD1205D91204D290FFFC1205D951
:1017B900C2AF90000D1205FDE0FF75F003A42433BC
:1017C900F81204A0E94A4B60030218BEFBFA79013A
:1017D900EF75F003A42433F81204A9D2AF90FFFEE9
:1017E9001205D9E4F0A3F090000C1205FD1204B221
:1017F90090FFFD1205D91204D290000C1205FD12BA
:1018090004B290FFFD1205D91204D290000C120502
:10181900FD1204B21212DE8512838513821204D2DC
:1018290090FFFE1205D9E4F0A3F0FBFAF990FFFD51
:101839001205D91204D290FFFC1205D912046F00C7
:1018490000000090FFFE1205D9E4F0A3F0FBFAF9BD
:1018590090FFFD1205D91204D290000E1205FD1257
:1018690004B290001B1205FDE0FF1210CC9000039A
:101879001205FDEFF09000031205FDE07012C2AFF2
:10188900784E06D2AF7824E6B4012012245B801B7F
:10189900C2AF7B007A00790090000D1205FDE0755A
:1018A900F003A42433F81204A9D2AF90000312055F
:0918B900FDE0FF8004D2AF7F289E
:0618C20090000E0205D9A2
:1025B90090FFFE1205D9EEF0A3EFF0851283851383
:1025C90082E0FEA3E0FFD39400EE94004050C2AF36
:1025D900782C1204A090000E12017524FBF582E4F8
:1025E9003400F583C083C082E0FD782C1204A090EA
:1025F900000F120175F4FCED5CD082D083F0700BF2
:10260900900010120175F4782356F6782C1204A064
:10261900900009EE8FF01202BDD2AF12245B900038
:04262900020205D9CB
:102A870012000A782C088683088682A3E0F8A3E060
:102A9700F988838982E0FD7851A308E0F6DDFA889A
:102AA70081A3E0F512A3E0F51378247601D0E0FFC7
:102AB700D0E0FED0E0FDD0E0FCD0E0FBD0E0FAD0E3
:102AC700E0F9D0E0F8D0D0D082D083D0F0D0E0D2F7
:022AD700AF321C
:1027E600C0E0C0F0C083C082C0D0E8C0E0E9C0E06D
:1027F600EAC0E0EBC0E0ECC0E0EDC0E0EEC0E0EF28
:10280600C0E0E581C39451FD782C08868308868252
:10281600A3E0F8A3E0F988838982EDF07851A30854
:10282600E6F0DDFAA3E512F0A3E513F012000A784C
:102836002C7930E7F60809E7F60809E7F6784F79C4
:0628460050E7F6022A8AA9
:0A000E00E581C39404F5810228087F
:03000B00022A2F97
:102A2F00C0E0C0F0C083C082C0D0E8C0E0E9C0E021
:102A3F00EAC0E0EBC0E0ECC0E0EDC0E0EEC0E0EFDC
:102A4F00C0E0C28C758CDC758A00D28C12306A1291
:102A5F001B8212262DD0E0FFD0E0FED0E0FDD0E0AB
:102A6F00FCD0E0FBD0E0FAD0E0F9D0E0F8D0D0D045
:082A7F0082D083D0F0D0E032D8
:03002300022AD9D5
:102AD900C2AFC0E0C0F0C083C082C0D0E8C0E0E9A6
:102AE900C0E0EAC0E0EBC0E0ECC0E0EDC0E0EEC061
:102AF900E0EFC0E012306A12000012262DD0E0FF8C
:102B0900D0E0FED0E0FDD0E0FCD0E0FBD0E0FAD090
:102B1900E0F9D0E0F8D0D0D082D083D0F0D0E0D2A4
:022B2900AF32C9
:10205000021DBBE493A3F8E493A34003F68001F2CE
:1020600008DFF48029E493A3F85407240CC8C33391
:10207000C4540F4420C8834004F456800146F6DF60
:10208000E4800B010204081020408090270CE47EBD
:10209000019360BCA3FF543F30E509541FFEE49355
:1020A000A360010ECF54C025E060A840B8E493A31C
:1020B000FAE493A3F8E493A3C8C582C8CAC583CA47
:1020C000F0A3C8C582C8CAC583CADFE9DEE780BEFF
:01277900005F
:10006600E709F608DFFA8046E709F208DFFA803E7C
:1000760088828C83E709F0A3DFFA8032E309F60869
:10008600DFFA8078E309F208DFFA807088828C83D1
:10009600E309F0A3DFFA806489828A83E0A3F60885
:1000A600DFFA805889828A83E0A3F208DFFA804C5F
:1000B60080D280FA80C680D4806980F28033801036
:1000C60080A680EA809A80A880DA80E280CA80339F
:1000D60089828A83ECFAE493A3C8C582C8CCC58317
:1000E600CCF0A3C8C582C8CCC583CCDFE9DEE780E7
:1000F6000D89828A83E493A3F608DFF9ECFAA9F066
:10010600EDFB2289828A83ECFAE0A3C8C582C8CCBB
:10011600C583CCF0A3C8C582C8CCC583CCDFEADED4
:10012600E880DB89828A83E493A3F208DFF980CC36
:1001360088F0EF60010E4E60C388F0ED2402B4042F
:100146000050B9F582EB2402B4040050AF232345D6
:0601560082239000B67345
:10015C00BB010689828A83E0225002E722BBFE02A1
:09016C00E32289828A83E49322D4
:10017500BB010CE58229F582E5833AF583E022503F
:1001850006E92582F8E622BBFE06E92582F8E22289
:0D019500E58229F582E5833AF583E49322A3
:1001A200BB010689828A83F0225002F722BBFE013C
:0201B200F32236
:1001B400F8BB010DE58229F582E5833AF583E8F081
:1001C400225006E92582C8F622BBFE05E92582C82D
:0201D400F22215
:1001D600C2D5EC30E709B2D5E4C39DFDE49CFCEE44
:1001E60030E715B2D5E4C39FFFE49EFE12060AC3AC
:1001F600E49DFDE49CFC800312060A30D507C3E4A7
:060206009FFFE49EFE22B2
:10020C00C5F0F8A3E028F0C5F0F8E582158270027D
:06021C001583E038F0221A
:10022200A3F8E0C5F025F0F0E5821582700215838F
:06023200E0C838F0E822EC
:10023800BB0110E58229F582E5833AF583E0F5F004
:10024800A3E0225009E92582F886F008E622BBFEE1
:100258000AE92582F8E2F5F008E222E5832AF58327
:08026800E993F5F0A3E99322EC
:10027000BB010DC58229C582C5833AC58302020C24
:100280005011C58229F808E5F026F618F5F0E58248
:1002900036F622BBFE11C58229F808E225F0F5F0FA
:1002A000F218E23582F222F8E58229F582E5832A06
:0D02B000F58374019325F0F5F0E4933822F6
:1002BD00F8BB0111E58229F582E5833AF583E8F073
:1002CD00E5F0A3F0225009E92582C8F608A6F02230
:0D02DD00BBFE09E92582C8F2E5F008F22217
:1002EA00E88FF0A4CC8BF0A42CFCE98EF0A42CFCB3
:1002FA008AF0EDA42CFCEA8EF0A4CDA8F08BF0A431
:10030A002DCC3825F0FDE98FF0A42CCD35F0FCEB8F
:10031A008EF0A4FEA9F0EB8FF0A4CFC5F02ECD3954
:0F032A00FEE43CFCEAA42DCE35F0FDE43CFC22C1
:1003390075F008758200EF2FFFEE33FECD33CDCC7B
:1003490033CCC58233C5829BED9AEC99E5829840FE
:100359000CF582EE9BFEED9AFDEC99FC0FD5F0D6DB
:10036900E4CEFBE4CDFAE4CCF9A88222B800C1B905
:100379000059BA002DEC8BF084CFCECDFCE5F0CB43
:10038900F97818EF2FFFEE33FEED33FDEC33FCEB7C
:1003990033FB10D703994004EB99FB0FD8E5E4F937
:1003A900FA227818EF2FFFEE33FEED33FDEC33FC24
:1003B900C933C910D7059BE99A4007EC9BFCE99A18
:1003C900F90FD8E0E4C9FAE4CCFB2275F010EF2F5D
:1003D900FFEE33FEED33FDCC33CCC833C810D7075D
:1003E9009BEC9AE899400AED9BFDEC9AFCE899F898
:0E03F9000FD5F0DAE4CDFBE4CCFAE4C8F9222B
:10040700E8600FECC313FCED13FDEE13FEEF13FFD3
:03041700D8F122F7
:0C041A00E6FC08E6FD08E6FE08E6FF220E
:0C042600E0FCA3E0FDA3E0FEA3E0FF2249
:0C043200E0F8A3E0F9A3E0FAA3E0FB224D
:0C043E00ECF608EDF608EEF608EFF622EA
:0C044A00ECF0A3EDF0A3EEF0A3EFF02225
:10045600D083D082E493F608740193F6087402936D
:09046600F608740393F6740473A4
:10046F00A8828583F0D083D082120486120486126C
:10047F000486120486E473E493A3C583C5F0C58391
:10048F00C8C582C8F0A3C583C5F0C583C8C582C8D7
:01049F00223A
:0904A000E6FB08E6FA08E6F92281
:0904A900EBF608EAF608E9F62278
:0904B200E0FBA3E0FAA3E0F9224B
:1004BB00F8E0FBA3A3E0F925F0F0E58215827002CA
:0704CB001583E0FA38F0226E
:0904D200EBF0A3EAF0A3E9F0222B
:1004DB00BB011A89828A83D0F0D0E0F8D0E0F9D042
:1004EB00E0FAD0E0FBE8C0E0C0F00204D25016E91D
:1004FB00F8D083D082D0E0F9D0E0FAD0E0FBC08214
:10050B00C0830204A9BBFE16E9F8D083D082D0E0E9
:0F051B00F9D0E0FAD0E0FBC082C083020668226C
:10052A00BB010DE58229F582E5833AF5830204B21F
:10053A005007E92582F80204A0BBFE07E92582F8E4
:10054A0002065FE58229F582E5833AF583020671A0
:10055A00BB0120E58229F582E5833AF583D0F0D004
:10056A00E0F8D0E0F9D0E0FAD0E0FBE8C0E0C0F073
:10057A000204D25018E92582F8D083D082D0E0F95B
:10058A00D0E0FAD0E0FBC082C0830204A9BBFE1807
:10059A00E92582F8D083D082D0E0F9D0E0FAD0E021
:0905AA00FBC082C0830206682236
:1005B300D083D082F8E4937012740193700DA3A3D7
:1005C30093F8740193F5828883E4737402936860EB
:0605D300EFA3A3A380DFEB
:1005D900E5132582F582E5123583F583B512048585
:1005E90082132210AF06858213F51222858213F534
:0405F90012D2AF2249
:0D05FD00E5132582F582E5123583F5832292
:100ACF00E50D2443F582E43402F583E0050D229011
:100ADF000240301003900243E475F0011204BB0290
:100AEF00015C2009E97F2ED2098018EF540F249062
:100AFF00D43440D4FF300D0BEF24BFB41A00500391
:100B0F002461FFE50E6002150E0511E51170020557
:100B1F001030100E900240E475F0011204BBEF028A
:100B2F0001A2022E8E7403D2108003E4C210F50DC1
:100B3F009002401204D2E4F50EF510F511E50E60A7
:100B4F00077F20120B1280F5750FFFC20AC209C270
:100B5F000BC20CC20EC20FC211120ADEFF700D3093
:100B6F0010057F00120B23AF11AE1022B4255FC208
:100B7F00D5C20D120ADEFF24D0B40A00501A75F048
:100B8F000A780E30D50508B6FF0106C6A426F62052
:100B9F00D5047002D20C80D924CFB41A00EF5004C0
:100BAF00C2E5D20D020D24D20A80C6D20980C0D26E
:100BBF000B80BCD2D580BAD20E80B47F20120B121C
:100BCF00200B077401B50E0040F1120ACFFF120B74
:100BDF0012020B4CD211D20F8095120ACFFB120AC0
:100BEF00CFFA120ACFF94A4B700679F57A0D7BFFCF
:100BFF00200B2EE50E602A7E008E82758300120177
:100C0F007560060EEE650F70F0C2D5EBC0E0EAC05E
:100C1F00E0E9C0E0EE120D6BD0E0F9D0E0FAD0E0E1
:100C2F00FB12015CFF60AAEBC0E0EAC0E0E9C0E0A4
:100C3F00120B12D0E02401F9D0E03400FAD0E0FB1F
:100C4F00E50F0460DCD50FD980877BFF7A0D7967BC
:100C5F00D20B809C791080027908C20FC2118008D4
:100C6F00D2D5790A8004790AC2D5E50F047002F54E
:100C7F000FE4FAFDFEFF120ACFFC7B08200A1312C5
:100C8F000ACFFD7B1030090A120ACFFE120ACFFFDE
:100C9F007B20EC3382D592D55013C3E43009069FE5
:100CAF00FFE49EFEE4200A039DFDE49CFCE4CBF8E8
:100CBF00C20AEC700CCFCECDCCE824F8F870F380DC
:100CCF0017C3EF33FFEE33FEED33FDEC33FCEB33A5
:100CDF00FB994002FB0FD8E9EB300A05F8D0E0C4CE
:100CEF0048B20AC0E00AEC4D4E4F78207B0070C22C
:100CFF00EAB50F0040BCC0E0120D6DD0F0D0E0207F
:100D0F000A04C4C0E0C4B20AC0F0120AFBD0F0D586
:100D1F00F0EB020B4C1205B30BE9530C63580BBAF3
:100D2F004C0BB6420C674F0C6F440C6F490BCF4303
:080D3F000C75550C59460C59C6
:100D4700450C59470E15500BBE2D0BC22E0BE52B2C
:100D57000BC6230BE3200DFE2A0B7E4800000BDD9C
:100D67003F3F3F00790AA2D5200C14300E09B91075
:100D7700020404B9080104A2D5200F02500104207F
:100D87000B68920BB50E005034C0E07F20300C1971
:100D97007F30A20B720F720E500F120DC4C20BC21E
:100DA7000FC20EC2117F30800F300E03E9C0E01270
:100DB7000B12300E03D0E0F9D0E0B50ECC300E1791
:100DC7007F30B9100C120B127F58300D077F7880D7
:100DD70003B90803120B12300B057F2D020B127F8C
:100DE700202011F87F2B200FF322920B80CF286E43
:100DF700756C6C2900D20A120ACF300AF8C20A7839
:100E07000E30D50108F6020B7E2D50434958120AC1
:100E1700CF2403B405004001E4900E1093120B0396
:0D0E2700743A120B03D20C750E04020C631A
:102B2B009002D31204267810EC4D4E4F70047CA506
:102B3B007DA5C3EC13FCED13FDEE13FEEF13FF505D
:102B4B0010EC64CCFCED644CFDEE644EFEEF64CEF9
:102B5B00FFD8DF9002D312044AEE547FFE2290027C
:0D2B6B00D3EEF0EFA3F0A374A5F0A3F022C9
:10060A00BC000BBE0029EF8DF084FFADF022E4CCD4
:10061A00F875F008EF2FFFEE33FEEC33FCEE9DEC9D
:10062A00984005FCEE9DFE0FD5F0E9E4CEFD22EDE3
:10063A00F8F5F0EE8420D21CFEADF075F008EF2F2D
:10064A00FFED33FD4007985006D5F0F222C398FD1E
:05065A000FD5F0EA22BB
:09065F00E2FB08E2FA08E2F922CC
:09066800EBF208EAF208E9F222C3
:0C067100E493FB740193FA740293F922E5
:102E8E00EFB40A07740D122E99740A309811A8998E
:102E9E00B8130CC2983098FDA899C298B811F630A4
:072EAE0099FDC299F599227C
:00000001FF
